:10000000BB3084000730FE001330FF001120800059
:10001000840A0408DC3A03191528FF0A0319FE0AAA
:1000200006287E088A007F088200DC308400F030D9
:100030000A128A112A200A128A1183177530840045
:100040007E300A128A112A200A128A1183010A12AA
:100050008A11322864008001840A040603190034DE
:1000600004062B280310003003180130FB00FF307A
:10007000E0000030E1000A168A1107200A128A11F6
:100080000A168A112F250A128A110A168A115D276B
:100090000A128A1183160313CB3083120313D10083
:1000A00083160313BB300A168A1162260A128A11BC
:1000B0007B0883120313DA0000300A168A116921C3
:1000C0000A128A110A128A11DC270A128A110A16E8
:1000D0008A1106220A128A1183120313A00000302B
:1000E000AA000030A9000030A8000030A7008E2828
:1000F000831203130130A707003003110318013ED8
:10010000031DA807003003110318013E031DA907B2
:10011000003003110318013E031DAA070A168A11B5
:1001200006220A128A110038031D97289828782879
:10013000013083120313D1000030D2000A128A1555
:1001400021200A128A11831203132A08803ABD0063
:1001500080303D02031DB62801302902031DB62858
:1001600086302802031DB628A1302702031CB928B7
:10017000BA28C628C1280A128A15F1220A128A1141
:1001800062282008013A0319BB28C028942C0A16BB
:100190008A1171200A128A11A22C0A168A11DB21F7
:1001A0000A128A11A22C0A168A11C9220A128A116D
:1001B000A22C0A168A1135220A128A11543083128F
:1001C0000313D5000630D6000A168A1189210A12B7
:1001D0008A11653083120313D5000630D6000A1643
:1001E0008A1189210A128A110A128A11DC270A123D
:1001F0008A110A168A1106220A128A11831203131F
:10020000A10002290A168A1106220A128A11003850
:10021000031D0B290C290229013083120313D1007D
:100220000030D2000A128A1521200A128A110A12FD
:100230008A11CB240A128A11892C0030F700003071
:10024000F8000310831603130030031801308800F0
:100250000310831203130030031801308800A0300C
:10026000BD003D08FD009B308316031387000A166E
:100270008A1584270A128A11831203137808D2017F
:10028000D2077708D101D1070A168A1188200A12ED
:100290008A110A168A15EE270A128A11831203138D
:1002A000A200220888000A168A111A200A128A114E
:1002B000831203132208403A031D5F296029372A5D
:1002C0000130F7070318F80A0030F8077808D20160
:1002D000D2077708D101D1070A168A1188200A129D
:1002E0008A11003083120313A5000030A60078297C
:1002F0000A168A15EE270A128A1183120313BD000B
:10030000BE012508BF003F07313E831384003D082E
:100310008000840A3E0880002508BD003D07313E6C
:100320008400000888000130A5070318A60A0030E1
:10033000A60700302602053003192502031CA12957
:10034000A22978290A168A111A200A128A11053060
:10035000F7070318F80A0030F80703108312031395
:10036000003003180130A1000030A5000030A600C5
:10037000B9292508BD003D07313E831384001430A0
:100380000006031DC6290030840A0006031DC92982
:10039000CA29D4292508BD003D07313E840000301C
:1003A0008000840A003080002508BD003D07DC3E47
:1003B00084000008BE00013084070008BF00250843
:1003C000C0004007313E84003E080006031DEB29B3
:1003D0003F08840A0006031DEE29EF29F029F429BD
:1003E000A1010314A10D032A0130A5070318A60AD1
:1003F0000030A60700302602053003192502031C31
:10040000022A032AB9292108013A031D082A092AC8
:10041000102A3830F7070318F80A0030F8073C298B
:100420000A168A1135220A128A1198308312031390
:10043000D5000630D6000A168A1189210A128A11BF
:100440002A3083120313D4002C30D5000A168A11E7
:10045000D6230A128A112A3083120313D4002C30B7
:10046000D5000A168A11D6230A128A114A280A16BA
:100470008A1135220A128A11763083120313D500AD
:100480000630D6000A168A1189210A128A11013013
:1004900083120313D1000030D2000A128A152120E2
:1004A0000A128A11831203137808D401D40777083B
:1004B000D301D3070A168A119C240A128A114030EC
:1004C0000A168A1197220A128A11403083120313E6
:1004D00088000A168A11A0200A128A1183120313B7
:1004E0007808D401D4077708D301D3070A168A11F4
:1004F0009C240A128A11031083120313003003187C
:100500000130A2000030A5000030A600872A25088F
:10051000BD003D07DC3E831384000008BE000130AF
:1005200084070008BF003F083E04031D982A992A4B
:10053000AB2AA208031D9D2A9E2AAB2A0430250659
:1005400026040319A42AA52AAB2A0A168A15A82765
:100550000A128A11C32A2508BD003D07DC3E84002B
:1005600000080A168A1197220A128A1183120313AD
:100570002508BD003D07DC3E831384000008880089
:10058000A2010314A20D831203130130A50703185F
:10059000A60A0030A60700302602053003192502FE
:1005A000031CD32AD42A872A0A168A11A0200A12E9
:1005B0008A11031083120313003003180130A200C4
:1005C0007808D401D4077708D301D3070A168A1113
:1005D0009C240A128A11003083120313A5000030F4
:1005E000A600F22A2508BD003D07E63E83138400DD
:1005F0000008BE00013084070008BF003F083E0429
:10060000031D032B042B162BA208031D082B092BFB
:10061000162B04302506260403190F2B102B162B3E
:100620000A168A15A8270A128A112E2B2508BD0042
:100630003D07E63E840000080A168A1197220A1236
:100640008A11831203132508BD003D07E63E83137C
:10065000840000088800A2010314A20D8312031372
:100660000130A5070318A60A0030A60700302602AD
:10067000053003192502031C3E2B3F2BF22A0A16D4
:100680008A11A0200A128A110A168A11EF200A1272
:100690008A11031083120313003003180130A200E3
:1006A0007808D401D4077708D301D3070A168A1132
:1006B0009C240A128A11003083120313A500003013
:1006C000A600622B2508BD003D07DC3E8313840095
:1006D0000008BE00013084070008BF003F083E0448
:1006E000031D732B742B862BA208031D782B792BEB
:1006F000862B04302506260403197F2B802B862B9E
:100700000A168A11D4200A128A11222CA20103147B
:10071000A20D2508BD003D07DC3E84000008303EE8
:100720000A168A1197220A128A11831203132508C6
:10073000BD003D07DC3E831384000008303E880086
:100740000030A3000030A400A52B23080A3E84003B
:1007500007300318013E0A128A1100260A128A1174
:100760000A168A1197220A128A1183120313230888
:100770000A3E840007300318013E0A128A1100263F
:100780000A128A1188000130A3070318A40A003056
:10079000A40700302402023003192302031CD12BCA
:1007A000D22BA52B1130840007300A128A110026A3
:1007B0000A128A110A168A1197220A128A11113016
:1007C000840007300A128A1100260A128A11831245
:1007D000031388002508043C303E0A168A1197222C
:1007E0000A128A11831203132508043C303E880044
:1007F0000430250626040319FE2BFF2B182C0D3080
:10080000840007300A128A1100260A128A110A1679
:100810008A1197220A128A110D30840007300A12B9
:100820008A1100260A128A11831203138800222CCF
:100830000A168A11A0200A128A110A168A11EF20BC
:100840000A128A11831203130130A5070318A60A9E
:100850000030A60700302602053003192502031CCC
:10086000322C332C622B0030B0000030AF0000304F
:10087000AE000030AD000130AB000030AC00043001
:10088000BB000030BC00442C2C08CB01CB072B084C
:10089000CA01CA073B08BD003D07DC3E8313840044
:1008A0000008C800840A0008C9000A168A11B1218C
:1008B0000A128A11831203134808AD004908AE00DA
:1008C000AF01B00103300310AB0DAC0DFF3E031DB3
:1008D000632C3C08C401C4073B08C301C3072E08AE
:1008E000C201C2072D08C101C1070A128A150421DD
:1008F0000A128A1183120313FF30BB070318BC0AC4
:10090000FF30BC07BC1F852C862C442C4A284A2863
:10091000F428831203132108013A03191D29033A0D
:100920000319872C882C62282008013A0319C7284C
:10093000033A0319CD28063A0319D3280C3A0319B0
:0C094000D928932C4A280A128A1100289A
:10095200031083120313003003180130D300B12CAB
:100962002030D4005308CB3E831384005408800007
:100972002030D4005308BB3E84005408800001306C
:10098200D4005408D30710305302031CC92CCA2CBC
:10099200B12C08000A168A1135220A128A11ED308A
:1009A20083120313D5000630D6000A168A11892154
:1009B2000A128A11013083120313D1000030D200CF
:1009C2000A128A1521200A128A1101308312031396
:1009D200C1000030C2000030C3000030C400043047
:1009E200C5000030C600F52C4208CB01CB074108F8
:1009F200CA01CA074508C7004707DC3E83138400C3
:100A02000008C800840A0008C9000A168A11B12128
:100A12000A128A11831203134808C3070318C40A6F
:100A22004908C40703300310C10DC20DFF3E031D68
:100A3200142DFF30C5070318C60AFF30C607C61FAC
:100A4200232D242DF52C1030CA002730CB0044086A
:100A5200C901C9074308C801C8070A168A11E22456
:100A62000A128A1183160313831203134908831689
:100A72000313E701E70783120313480883160313DE
:100A8200E601E607103083120313CA002730CB00B9
:100A92004408C901C9074308C801C8070A168A11D0
:100AA20063230A128A11831203134908C901C90771
:100AB2004808C801C807E830CA000330CB000A164C
:100AC2008A11E2240A128A11831603138312031372
:100AD200490883160313E901E9078312031348083F
:100AE20083160313E801E807E83083120313CA00F0
:100AF2000330CB004408C901C9074308C801C8072D
:100B02000A168A1163230A128A11831203134908EF
:100B1200C901C9074808C801C8076430CA000030C3
:100B2200CB000A168A11E2240A128A1183160313D1
:100B320083120313490883160313EB01EB07831295
:100B42000313480883160313EA01EA076430831289
:100B52000313CA000030CB004408C901C907430887
:100B6200C801C8070A168A1163230A128A1183125E
:100B720003134908C901C9074808C801C8070A3050
:100B8200CA000030CB000A168A11E2240A128A1126
:100B92008316031383120313490883160313ED010B
:100BA200ED0783120313480883160313EC01EC07C5
:100BB2000A3083120313CA000030CB004408C90173
:100BC200C9074308C801C8070A168A1163230A1213
:100BD2008A1183160313831203134908831603131E
:100BE200EF01EF0783120313480883160313EE0184
:100BF200EE070A128A1500200A128A110800FE0066
:100C0200FE1F082E83137E188317000808008A002F
:100C1200040882000034693463346B342034613454
:100C22006E34793420345234423420342034203427
:100C32002034203420342034003446346F3472346B
:100C4200203473346B346934703420347434753422
:100C520074346F347234203463346C34003452345C
:100C62004234373420347434723461346E34733421
:100C72006C346134743465345334743472343134C2
:100C820000345234423434342834323473346534C8
:100C92006334293472346534613464344534453400
:100CA200503452340034573452344934543420349A
:100CB2005434523441344E3453343F342834523451
:100CC20042343434293400344F344E344C345934A1
:100CD20020345434523441344E3453343F34283463
:100CE20052344234353429340034433441344C34A0
:100CF200433455344C344134543445342634573417
:100D020052344934543445342034003445344E345A
:100D12004434203445344534503452344F344D3405
:100D220020342034203420342034203400346934F8
:100D3200743420346E3475346D34623420346E343D
:100D42006F34773420346834613476346534003457
:100D520052344234343420342D34203464347234E6
:100D620069347634653420346334753472347334C0
:100D720000345234423435342F343634203469341A
:100D82006E3463342F346434653463342034203455
:100D92002034003465346C3465346D3465346E341B
:100DA20074342034733474347234313420343D3426
:100DB20029342034003420342034203420342034A8
:100DC2002034203420342034203420342034203481
:100DD2002034203420340034433441344C344334FE
:100DE20055344C3441345434453400344534583449
:100DF2004934543400342834313430342934003402
:100E02005734413449345434003428343834293482
:100E120000342A34383400342B3400343D34003466
:100E22005E340034303430343034303430342034B2
:100E32002034203420342034203420342034203410
:100E420020342034303430343034303430342034B0
:100E520020342034203420342034203420342034F0
:100E62002034203410340310003003180130D8002D
:100E7200D71F3C2F3D2F4B2FD409D509D609D709AF
:100E8200D40A0319D50A0319D60A0319D70AD801B5
:100E92000314D80DD31F4E2F4F2F5E2FD009D10927
:100EA200D209D309D00A0319D10A0319D20A0319A4
:100EB200D30A0130DE005E08D8060030DD000030C3
:100EC200DC000030DB000030DA005708560455041D
:100ED200540403196D2F6E2FC32FD9010314D90D9A
:100EE2007F2F0130DE000310D40DD50DD60DD70DA6
:100EF200DE0B742F0130DE005E08D907D71F822F68
:100F0200832F722F0130DE000310DA0DDB0DDC0DB2
:100F1200DD0DDE0B852F57085302031D9A2F56084D
:100F22005202031D9A2F55085102031D9A2F54088D
:100F32005002031C9D2F9E2FB42F5408D002550837
:100F4200031C550FD1025608031C560FD202570834
:100F5200031C570FD3020130DA040030DB040030E7
:100F6200DC040030DD0401300310D70CD60CD50CA4
:100F7200D40CFF3E031DB52F0130D902031DC22F31
:100F8200C32F832FD808031DC72FD22FDA09DB09FD
:100F9200DC09DD09DA0A0319DB0A0319DC0A031981
:100FA200DD0A5D08D3005C08D2005B08D1005A0854
:100FB200D000DB2F0800143083120313D10000305D
:100FC200D2000A128A1521200A128A11FC08031D76
:100FD200EB2FEC2FFD2F143083120313D1000030BE
:100FE200D2000A128A1521200A128A11FC08031D56
:0A0FF200FB2FFC2FFD2FDC2F080061
:10100000031083120313003003180130C8000828AE
:101010004808C9004907E63E831384000008303EB3
:10102000CA004808CB3E84004A0880000130C9004D
:101030004908C80705304802031C1F282028082833
:101040000800F128831603135B088312031387003B
:1010500083160313DB1B2D282E283B288030831298
:101060000313D30083160313831203135308831649
:101070000313DB07E1288030DB025B08013A031D24
:10108000422843285028103083120313D3008316BC
:10109000031383120313530883160313DB00E128A1
:1010A000DB08031D542855285828DB010314DB0DE9
:1010B0005B081B3A031D5D285E286328031000307F
:1010C00003180130DB005B08203A031D68286928FB
:1010D00075281B3083120313D30083160313831266
:1010E0000313530883160313DB005B08213A031D27
:1010F0007A287B288728203083120313D300831695
:10110000031383120313530883160313DB005B08D6
:10111000433A031D8C288D2899282130831203130C
:10112000D300831603138312031353088316031388
:10113000DB005B08093A031D9E289F28AB2843303B
:1011400083120313D300831603138312031353086C
:1011500083160313DB005B080C3A031DB028B1288B
:10116000BD28093083120313D3008316031383129F
:101170000313530883160313DB005B085B3A031D5C
:10118000C228C328CF280C3083120313D300831640
:10119000031383120313530883160313DB005B0846
:1011A000103A031DD428D528E1285B30831203139D
:1011B000D3008316031383120313530883160313F8
:1011C000DB00E83083120313D400FD30D5000A168B
:1011D0008A11D6230A128A15FC08031DF028F1286B
:1011E0000329831203130130D1020030031CD20300
:1011F000D202FF305206031DFF28FF305106031DA7
:1012000002290329222808007808D401D407770886
:10121000D301D3070A168A119C240A128A15831255
:10122000031342084104031D1629172949290430D4
:101230004306440403191D291E29492903100030BF
:1012400003180130C9002F290A168A15A8270A1287
:101250008A15013083120313CA004A08C9070430F3
:10126000CA0043084A02CB0044090318013ECC00DF
:101270004908CD00CE014E08803ACF004C08803A94
:101280004F02031D45294B084D02031C48294929DB
:1012900024290030C5000030C6004208C801C80734
:1012A0004108C701C70771290A30D2000030D300B6
:1012B0004808D101D1074708D001D0070A168A1182
:1012C000EE250A128A15831203135108C801C807B4
:1012D0005008C701C7070130C5070318C60A003008
:1012E000C6074808803ACA0080304A02031D7A299E
:1012F0000130470203187D297E2954294208410400
:10130000031D832984298E2930300A168A119722D9
:101310000A128A153030831203138800C22A480843
:101320004704031D942995290A2A4508FF3ED40045
:1013300046080318013EFF3ED500D601D51BD60353
:101340005608D7000030D3000030D2000030D10062
:101350000A30D0000A168A118A250A128A158312C9
:1013600003135308D7005208D6005108D50050087F
:10137000D4004108D0004208D1000030D11BFF301A
:10138000D200D3000A128A1134270A128A15831256
:1013900003135008303E0A168A1197220A128A1542
:1013A000831203134508FF3ED40046080318013E8C
:1013B000FF3ED500D601D51BD6035608D700003016
:1013C000D3000030D2000030D1000A30D0000A161D
:1013D0008A118A250A128A15831203135308D7002B
:1013E0005208D6005108D5005008D4004108D0005A
:1013F0004208D1000030D11BFF30D200D3000A12C6
:101400008A1134270A128A15831203135008303EBA
:101410008800BC2A4508FF3ECA0046080318013E62
:10142000FF3ECB0047084A02D4004808031C480A84
:101430004B02D500D601D51BD6035608D700003085
:10144000D3000030D2000030D1000A30D0000A169C
:101450008A118A250A128A15831203135308D700AA
:101460005208D6005108D5005008D4004108D000D9
:101470004208D1000030D11BFF30D200D3000A1245
:101480008A1134270A128A15831203135308D300D2
:101490005208D2005108D1005008D0000030D700C7
:1014A0000030D6000030D5000A30D4000A168A1168
:1014B000DA260A128A15831203135008303E0A16E0
:1014C0008A1197220A128A15831203134508FF3ED8
:1014D000CA0046080318013EFF3ECB0047084A02F7
:1014E000D4004808031C480A4B02D500D601D51B7E
:1014F000D6035608D7000030D3000030D2000030A9
:10150000D1000A30D0000A168A118A250A128A15DB
:10151000831203135308D7005208D6005108D50090
:101520005008D4004108D0004208D1000030D11B3F
:10153000FF30D200D3000A128A1134270A128A150A
:10154000831203135308D3005208D2005108D1006C
:101550005008D0000030D7000030D6000030D50051
:101560000A30D4000A168A11DA260A128A15831262
:1015700003135008303E88000130C7070318C80A1B
:101580000030C8074808803ACA004608803A4A0234
:10159000031DCC2A45084702031CCF2AD02A8F29D5
:1015A000440843040319D52AD62AE12A2B300A1607
:1015B0008A1197220A128A152B308312031388008E
:1015C000EB2A3D300A168A1197220A128A153D30FD
:1015D0008312031388000A168A11A0200A128A15A2
:1015E0000800C2010314C20D0A168A158C270A12BC
:1015F0008A150A168A1135220A128A1501308312B9
:101600000313D5000730D6000A168A1189210A1261
:101610008A15013083120313D1000030D2000A1260
:101620008A1521200A128A150030F7000030F800D0
:1016300003108316031300300318013088000310D1
:10164000831203130030031801308800A030CD004E
:101650004D08FD009B308316031387000A168A1578
:1016600084270A128A15831203137808C501C50757
:101670007708C401C4077808D201D2077708D101DE
:10168000D1070A168A1188200A128A150A168A15A5
:10169000EE270A128A1583120313C100410888003D
:1016A0000A168A111A200A128A1583120313410896
:1016B000403A031D5C2B5D2BD42F0A128A11A924FA
:1016C0000A128A150130F7070318F80A0030F807E4
:1016D000831203137808D201D2077708D101D1070A
:1016E0000A168A1188200A128A1500308312031301
:1016F000C8000030C9007C2B0A168A15EE270A1292
:101700008A1583120313CD00CE014808CF004F077E
:10171000DC3E831384004D088000840A4E0880005C
:101720004808CD004D07DC3E8400000888000130E9
:10173000C8070318C90A0030C9074908803ACD0014
:1017400080304D02031DA62B05304802031CA92B37
:10175000AA2B7C2B0030C8000030C900AF2B0A1622
:101760008A15EE270A128A1583120313CD00CE01C3
:101770004808CF004F07E63E831384004D088000E1
:10178000840A4E0880004808CD004D07E63E8400DC
:10179000000888000130C8070318C90A0030C907CB
:1017A0004908803ACD0080304D02031DD92B053009
:1017B0004802031CDC2BDD2BAF2B0A168A111A20E2
:1017C0000A128A150930F7070318F80A0030F807DB
:1017D000831203137808CC01CC077708CB01CB0721
:1017E0008B2E0A128A11A9240A128A150310831259
:1017F0000313003003180130C2000030C80000306D
:10180000C900082C0130C8070318C90A0030C907ED
:101810004808CD004D07DC3E8313840014300006D9
:10182000031D152C0030840A00060319182C192CEE
:10183000022C4808C3000030C6000030C700372C17
:101840004308CD004D07DC3E84000008303ECE004A
:101850004608BB3E84004E0880000130CD004D0894
:10186000C3070130C6070318C70A0030C707053091
:10187000CD0048084D02CE0049090318013ECF00B3
:101880004708803AD0004F08803A5002031D4A2C86
:101890004E084602031C4D2C4E2C202C5D2C0A12A7
:1018A0008A11A9240A128A1583120313C201031490
:1018B000C20D0030C6000030C700C208031D612CF5
:1018C000622C682C4C08F801F8074B08F701F70761
:1018D0007808D201D2077708D101D1070A168A11F8
:1018E00088200A128A15831203134708C901C90701
:1018F0004608C801C8074908803ACD0080304D022B
:10190000031D842C10304802031C872C882C892C42
:10191000E12C0A168A15EE270A128A158312031380
:10192000C300430888004B087702CD004C08031C15
:101930004C0A7802CE0000304E02353003194D02B9
:10194000031CA32CA42CA52CE12C4308143A031946
:10195000AA2CAB2CC02C4308273A0319B02CB12C6D
:10196000C02C4308403A0319B62CB72CC02C4308AE
:10197000CD004808BB3E831384004D088000C82C6E
:101980004808FF3EC80049080318013EFF3EC90051
:101990000130F7070318F80A0030F8070130C807CC
:1019A0000318C90A0030C9074908803ACD008030C1
:1019B0004D02031DDD2C10304802031CE02CE12CED
:1019C000892C4808CA00103048064904031DE92C38
:1019D000EA2CEF2C0310003003180130CA004A082B
:1019E000CD00CE0149084E06031DF82C48084D06CF
:1019F000031DFB2CFC2CC32D4A08CD00CE014D0845
:101A0000C6004E08C7004708803ACD0080304D021E
:101A1000031D0C2D10304602031C0F2D102D112D0F
:101A2000672D0A168A15EE270A128A1583120313E8
:101A3000C300430888004B087702CD004C08031C04
:101A40004C0A7802CE0000304E02353003194D02A8
:101A5000031C2B2D2C2D2D2D672D4308143A031913
:101A6000322D332D482D4308273A0319382D392DAF
:101A7000482D4308403A03193E2D3F2D482D430879
:101A8000CD004608BB3E831384004D0880004E2DD8
:101A9000FF30C6070318C70AFF30C7070130F70732
:101AA0000318F80A0030F8070130C6070318C70A00
:101AB0000030C7074708803ACD0080304D02031D33
:101AC000632D10304602031C662D672D112D00304A
:101AD000C6000030C7006C2D0A168A15EE270A12C0
:101AE0008A1583120313C300430888004B0877024A
:101AF000CD004C08031C4C0A7802CE0000304E0288
:101B0000353003194D02031C862D872D882DC22DDB
:101B10004308143A03198D2D8E2DA32D4308273A1F
:101B20000319932D942DA32D4308403A0319992DA1
:101B30009A2DA32D4308CD004608CB3E8313840085
:101B40004D088000A92DFF30C6070318C70AFF30D3
:101B5000C7070130F7070318F80A0030F80701300B
:101B6000C6070318C70A0030C7074708803ACD00E8
:101B700080304D02031DBE2D10304602031CC12DC6
:101B8000C22D6C2D1E2E0030C6000030C700C82D9F
:101B90000A168A15EE270A128A1583120313C30048
:101BA000430888004B087702CD004C08031C4C0A00
:101BB0007802CE0000304E02353003194D02031C6E
:101BC000E22DE32DE42D1E2E4308143A0319E92DCE
:101BD000EA2DFF2D4308273A0319EF2DF02DFF2D95
:101BE0004308403A0319F52DF62DFF2D4308CD008B
:101BF0004608CB3E831384004D088000052EFF303D
:101C0000C6070318C70AFF30C7070130F7070318D4
:101C1000F80A0030F8070130C6070318C70A003079
:101C2000C7074708803ACD0080304D02031D1A2EA9
:101C300010304602031C1D2E1E2EC82D0A168A11B6
:101C40001A200A128A15831203134208013A031D4F
:101C50002A2E2B2E7C2E0030C8000030C900362ED4
:101C60000130C8070318C90A0030C9074808CD0069
:101C70004D07E63E8313840014300006031D432EF7
:101C80000030840A00060319462E472E302E4808DD
:101C9000C3000B30C6000030C700652E4308CD00DE
:101CA0004D07E63E84000008303ECE004608CB3E9D
:101CB00084004E0880000130CD004D08C30701307C
:101CC000C6070318C70A0030C7071030CD00480800
:101CD0004D02CE0049090318013ECF004708803A63
:101CE000D0004F08803A5002031D782E4E0846025D
:101CF000031C7B2E7C2E4E2E83160313CB308312B7
:101D00000313D10083160313BB300A168A1162260F
:101D10000A128A156E2F0A168A1149210A128A158B
:101D2000003083120313C8000030C9009D2E01301B
:101D3000C8070318C90A0030C9074808CD004D0775
:101D4000DC3E8313840014300006031DAA2E0030ED
:101D5000840A00060319AD2EAE2E972E4808C30044
:101D60000030C6000030C700CC2E4308CD004D0720
:101D7000DC3E84000008303ECE004608BB3E8400B6
:101D80004E0880000130CD004D08C3070130C60762
:101D90000318C70A0030C7070530CD0048084D02B8
:101DA000CE0049090318013ECF004708803AD00011
:101DB0004F08803A5002031DDF2E4E084602031CD6
:101DC000E22EE32EB52E0030C8000030C900EE2E02
:101DD0000130C8070318C90A0030C9074808CD00F8
:101DE0004D07E63E840014300006031DFA2E003035
:101DF000840A00060319FD2EFE2EE82E4808C300B3
:101E00000030C6000030C7001C2F4308CD004D072E
:101E1000E63E84000008303ECE004608CB3E8400FB
:101E20004E0880000130CD004D08C3070130C607C1
:101E30000318C70A0030C7070530CD0048084D0217
:101E4000CE0049090318013ECF004708803AD00070
:101E50004F08803A5002031D2F2F4E084602031CE4
:101E6000322F332F052F83160313CB308312031326
:101E7000D10083160313BB300A168A1162260A1298
:101E80008A150A168A1102200A128A150130831255
:101E90000313D1000030D2000A128A1521200A1241
:101EA0008A150A128A11DC270A128A150A168A1163
:101EB00006220A128A1583120313C3000130D100CF
:101EC0000030D2000A128A1521200A128A150A1639
:101ED0008A158C270A128A15C42FF52F0A168A1123
:101EE00002200A128A15013083120313D100003038
:101EF000D2000A128A1521200A128A150A128A11A2
:101F0000DC270A128A150A168A1106220A128A1575
:101F100083120313C3000130D1000030D2000A1233
:101F20008A1521200A128A150A168A158C270A1288
:101F30008A15A72F4208013A031D9F2FA02FA12F1A
:101F4000F12B4F2CC2010314C20D8B2E6E2F831266
:101F500003134308013A0319A22F033A03199A2FD6
:101F6000A62F4408C23EF70045080318013EFF3E75
:101F7000F800332B44083E3EF70045080318013EA5
:101F8000003EF800332B412F831203134308013A1C
:101F900003196D2F033A03196E2F063A0319B12F57
:101FA0000C3A0319BA2FC32F0A168A1135220A12C6
:101FB0008A15873083120313D5000630D6000A161F
:101FC0008A1189210A128A15F73083120313D5006A
:101FD0000630D6000A168A1189210A128A150A12B9
:101FE0008A11DC270A128A15F52F0A168A119B23FB
:101FF0000A128A150A168A1102200A128A15080086
:10200400F0308312031386000800092819280130D0
:10201400E0020030031CE103E102FF306106031D0E
:102024001528FF306006031D182819280828080001
:102034000A168A112F230A168A1183120313D10058
:102044000A168A15B3270A168A110A168A11A020BD
:102054000A168A112D2808000A168A159E270A16C0
:102064008A110A168A1594270A168A110A168A11E1
:1020740043200A168A110A168A15D4270A168A11C9
:102084000800EF3083120313D90059088705EF3095
:10209400D9008316031383120313590883160313F9
:1020A400870505300A168A15E1270A168A110800E1
:1020B40083120313DD0086105D080A168A111724A3
:1020C4000A168A118312031386148830E000133031
:1020D400E1000A168A1107200A168A110800043042
:1020E4007B020318762877287C280130C100410838
:1020F400FB0787287B08043A031D81288228872848
:102104000310003003180130FB0008005208D4010A
:10211400D4075108D301D3070A168A119C240A163E
:102124008A110A168A112E200A168A117D147D0836
:102134000A168A11FC220A168A1108000A168A1144
:1021440043200A168A110A168A15D4270A168A11F8
:102154000A168A1594270A168A110A168A159E27C2
:102164000A168A110A168A15D4270A168A11080033
:102174000A168A1594270A168A1183120313071E56
:10218400C428C528C928F5010314F50DCE28031069
:10219400003003180130F5000A168A15D4270A16F0
:1021A4008A1108000310003003180130C100DA2836
:1021B40014300A168A1197220A168A1114308312CF
:1021C400031388000130C2004208C10706304102EF
:1021D400031CED28EE28DA2808008312031378087C
:1021E400D401D4077708D301D3070A168A119C2493
:1021F4000A168A113D300A168A1197220A168A1184
:102204003D308312031388000A168A11A0200A168F
:102214008A1108000310003003180130C400122989
:102224004408C5004507DC3E84000008303EC60073
:102234004408BB3E8400460880000130C5004508C0
:10224400C40705304402031C28292929122908003F
:10225400D80058080A168A1117240A168A11013060
:1022640083120313D9005908F6077608103A031DA0
:102274003C293D2948290310003003180130DA00B5
:1022840001300A168A1169210A168A1108000310FE
:10229400003003180130D1004F292030D2005108FA
:1022A400BB3E83138400520880002030D2005108C2
:1022B400CB3E8400520880000130D2005208D1077E
:1022C40010305102031C672968294F290800DB00DC
:1022D400DB08031D6E296F297B295A08DC005C0882
:1022E400F6005A08803E0A168A115A200A168A11E4
:1022F40087295A08103EDC005C08F6005A08C03EE4
:102304000A168A115A200A168A1188290800A12956
:102314005508840056080A128A1100260A168A11E2
:102324000A168A112A210A168A110130831203130C
:10233400D5070318D60AD700D71FA129D6038312BD
:1023440003135508840056080A128A1100260A1637
:102354008A110038031DAF29B0298A2908000030EA
:10236400CC000030CD00481CB829B929BF294A083F
:10237400CC070318CD0A4B08CD0701300310CA0D52
:10238400CB0DFF3E031DC02901300310C90CC80C3E
:10239400FF3E031DC72949084804031DD229D32938
:1023A400B5294D08C901C9074C08C801C807DA296D
:1023B40008007B08C1004107DC3E83138400013020
:1023C4008007840A0318800A7B08C1004107DC3EA9
:1023D400840008300006031DF2290030840A000638
:1023E400031DF529F629002A7B08C1004107DC3EBC
:1023F400840000308000840A003080000A168A11AC
:102404000C210A168A110800831203130608E1003E
:1024140083160313060883120313E0000F30E3004E
:1024240083160313831203136308831603138605A9
:10243400F03083120313E300630886040609E20004
:102444006108860060088316031386008312031351
:102454006208E30004300310E30CFF3E031D2D2A41
:102464006308342A0800031083120313003003188E
:102474000130DA0000300A168A1169210A168A111D
:10248400DC3083120313D5000630D6000A168A11F5
:1024940089210A168A11DC3083120313D500063011
:1024A400D6000A168A1189210A168A11031083128A
:1024B4000313003003180130DA0000300A168A11C1
:1024C40069210A168A1108006108E501E507600818
:1024D400E401E4076108E301E3076008E201E207BD
:1024E4000615742A0130E4020030031CE503E502FA
:1024F400FF306506031D802AFF306406031D832A0E
:10250400842A742A0611862A0130E2020030031C50
:10251400E303E302FF306306031D922AFF306206E1
:10252400031D952A962A862A080083120313D000D5
:1025340050080A168A11FC220A168A110130F7077C
:102544000318F80A0030F8073F30770583120313A5
:10255400D10000307805D200520851040319B32A7F
:10256400B42AB52AC82A0A168A11A0200A168A1182
:10257400831203137808D401D4077708D301D3074F
:102584000A168A119C240A168A11C82A08007B0894
:10259400C1004107DC3E831384000008C2000130FF
:1025A40084070008C30043084204031DDA2ADB2A17
:1025B400E62A7B08C1004107DC3E84000730800026
:1025C400840A00308000F62A7B08C1004107DC3E03
:1025D4008400FF308007840F00080318000AC2003B
:1025E400FF304207800084030A168A110C210A1660
:1025F4008A11080083120313D7000830D6001C2B5D
:10260400D71F052B062B0C2B0A168A159E270A1694
:102614008A11112B0A168A1143200A168A110A16E6
:102624008A15C9270A168A11831203135708D8007A
:102634005808D7070130D6025608FF3A031D232B4A
:10264400242B022B0A168A159E270A168A110A16AB
:102654008A11BA200A168A1108000830831203135B
:10266400D2000310003003180130D3000A168A1573
:102674009E270A168A11562B5308D4005408D307F0
:102684000A168A1594270A168A1183120313071E41
:102694004C2B4D2B512B0130D4005408D3070A1670
:1026A4008A15D4270A168A11831203130130D20221
:1026B4005208FF3A031D5F2B602B3E2B5308622BFD
:1026C40008004B084A040319682B692B992BCC0189
:1026D4000314CC0D782B01300310CA0DCB0DFF3E33
:1026E400031D6E2B0130CD004D08CC07CB1F7B2B77
:1026F4007C2B6D2B4B084902031D822B4A08480290
:10270400031C852B862B8C2B4A08C8024B08031C00
:10271400C903C90201300310CB0CCA0CFF3E031DD0
:102724008D2B0130CC02031D982B992B7C2B9A2BDB
:1027340008000A128A11A9240A168A1103108312A6
:102744000313003003180130D100A82B5108D20024
:102754005207DC3E8313840000308000840A00307A
:1027640080005108D2005207E63E84000030800009
:10277400840A003080003030D2005108BB3E84000F
:10278400520880003030D2005108CB3E84005208F9
:1027940080000130D2005208D10705305102031CD9
:1027A400D42BD52BA82B08000608D70083160313B7
:1027B400060883120313D6000310003003180130F7
:1027C400FC000F30D8008316031383120313580838
:1027D400831603138605F03083120313D8005808B8
:1027E4008604FF2B0608F039F03A0319FA2BFB2B69
:1027F400FF2BFC010314FC0D0F2C0130D40200301C
:10280400031CD503D502FF305506031D0B2CFF30E6
:102814005406031D0E2C0F2CF42B57088600560863
:10282400831603138600162C0800DE00242C1030B7
:1028340083120313E0002730E1000A168A110720EF
:102844000A168A110A168A1106220A168A110038F3
:10285400031D2D2C2E2C192C831203135E08F03922
:10286400DF0006080F395F0786002830E0000030DB
:10287400E1000A168A1166220A168A1183120313CA
:102884005E08DF0004300310DF0DFF3E031D452CFE
:1028940006080F395F0786002830E0000030E100A9
:1028A4000A168A1166220A168A1108000030EC0002
:1028B4000030EB000030EA000030E900611C632CBA
:1028C400642C782C6508E907660803110318660A66
:1028D400031DEA07670803110318670A031DEB07C2
:1028E400680803110318680A031DEC070130ED00A2
:1028F4000310E50DE60DE70DE80DED0B7A2C013024
:102904000310E40CE30CE20CE10CFF3E031D822CEB
:102914006408630462046104031D912C922C602CEE
:102924006C08E4006B08E3006A08E2006908E1004F
:102934009B2C08005408F801F8075308F701F7071F
:102944000A168A112E200A168A11FE3083120313E6
:10295400D5005508FD057D080A168A11FC220A16C1
:102964008A11F508031DB72CBD2C0A168A11A02064
:102974000A168A11A22C8312031354080A168A1108
:10298400FC220A168A11F508031DC92CCF2C0A163D
:102994008A11A0200A168A11A22C83120313530849
:1029A4000A168A11FC220A168A11F508031DDB2C6B
:1029B400E12C0A168A11A0200A168A11A22C0800FA
:1029C4000030CD000030CE004B084A040319EB2C34
:1029D400EC2C272DCC010314CC0DFB2C013003105F
:1029E400CA0DCB0DFF3E031DF12C0130CF004F0863
:1029F400CC07CB1FFE2CFF2CF02C01300310CD0D87
:102A0400CE0DFF3E031D002D4B084902031D0C2D66
:102A14004A084802031C0F2D102D1A2D4A08C8021B
:102A24004B08031CC903C9020130CD040030CE0495
:102A340001300310CB0CCA0CFF3E031D1B2D0130CB
:102A4400CC02031D262D272DFF2C4E08C901C907D2
:102A54004D08C801C8072E2D0800A03083120313A7
:102A6400D4000F30D5000A168A11D6230A168A110B
:102A7400031083160313003003180130860030302E
:102A84008312031386009030E0000130E1000A163F
:102A94008A1166220A168A11903083120313E00009
:102AA4000130E1000A168A1166220A168A11903052
:102AB40083120313E0000130E1000A168A11662232
:102AC4000A168A1120308312031386009030E00026
:102AD4000130E1000A168A1166220A168A1128308A
:102AE4000A168A115A200A168A110F300A168A11F8
:102AF4005A200A168A1106300A168A115A200A1612
:102B04008A1102300A168A115A200A168A110800FC
:102B14000030DB000030DA000030D9000130D8008A
:102B24000030DF000030DE000030DD000030DC006B
:102B3400CE2D5308E8005208E7005108E60050087B
:102B4400E5005B08E4005A08E3005908E20058086D
:102B5400E1000A168A1158240A168A1183120313F3
:102B64006408DB006308DA006208D9006108D80051
:102B74000130DC07003003110318013E031DDD079B
:102B8400003003110318013E031DDE07003003115A
:102B94000318013E031DDF075F08803AE000570871
:102BA400803A6002031DE02D56085E02031DE02DED
:102BB40055085D02031DE02D54085C02031CE32D3F
:102BC400E42D9B2D5B08D3005A08D2005908D1008C
:102BD4005808D000ED2D0800031000300318013010
:102BE400D400D31FF62DF72DFF2DD209D309D20A15
:102BF4000319D30AD4010314D40DD11F022E032EBA
:102C04000C2ED009D109D00A0319D10A0130D800F9
:102C14005808D4060030D6000030D70053085204B8
:102C24000319152E162E512ED5010314D50D252E5C
:102C340001300310D20DD30DFF3E031D1B2E0130B6
:102C4400D8005808D507D31F282E292E1A2E013054
:102C54000310D60DD70DFF3E031D2A2E5308510233
:102C6400031D362E52085002031C392E3A2E442ED0
:102C74005208D0025308031CD103D1020130D604F8
:102C84000030D70401300310D30CD20CFF3E031DD7
:102C9400452E0130D502031D502E512E292ED40865
:102CA400031D552E5A2ED609D709D60A0319D70A59
:102CB4005708D101D1075608D001D007612E08006A
:102CC400031083120313003003180130DA000030BC
:102CD4000A168A1169210A168A11DC308312031339
:102CE400D5000630D6000A168A1189210A168A11DF
:102CF400DC3083120313D5000630D6000A168A117D
:102D040089210A168A110310831203130030031851
:102D14000130DA0000300A168A1169210A168A1174
:102D2400031083120313003003180130D2009A2ECB
:102D34005208BB3E8313840000080A168A112A2114
:102D44000A168A11013083120313D4005408D207DF
:102D540010305202031CAF2EB02E9A2E03100030F6
:102D640003180130DA0001300A168A1169210A16A3
:102D74008A11031083120313003003180130D300A7
:102D8400C32E5308CB3E8313840000080A168A110D
:102D94002A210A168A11013083120313D40054081D
:102DA400D30710305302031CD82ED92EC32E08008B
:102DB4000310003003180130D800D31FE22EE32E95
:102DC400F12ED009D109D209D309D00A0319D10AA5
:102DD4000319D20A0319D30AD8010314D80DD71F33
:102DE400F42EF52E002FD409D509D609D709D40A13
:102DF4000319D50A0319D60A0319D70A5708560422
:102E0400550454040319072F082F4C2FD901031418
:102E1400D90D192F0130DA000310D40DD50DD60DBC
:102E2400D70DDA0B0E2F0130DA005A08D907D71F55
:102E34001C2F1D2F0C2F57085302031D2B2F560830
:102E44005202031D2B2F55085102031D2B2F54082A
:102E54005002031C2E2F2F2F3D2F5408D00255084B
:102E6400031C550FD1025608031C560FD2025708F3
:102E7400031C570FD30201300310D70CD60CD50C0A
:102E8400D40CFF3E031D3E2F0130D902031D4B2FEE
:102E94004C2F1D2FD808031D502F5B2FD009D109AB
:102EA400D209D309D00A0319D10A0319D20A031982
:102EB400D30A5C2F08000A168A1135220A168A11D1
:102EC4001E3083120313D5000630D6000A168A1169
:102ED40089210A168A110C3083120313D500063097
:102EE400D6000A168A1189210A168A11143083120F
:102EF4000313D1000030D2000A128A1521200A16C9
:102F04008A11FC08031D872F882FFF2F0A168A11A8
:102F140035220A168A11A93083120313D50006300C
:102F2400D6000A168A1189210A168A1130308312B2
:102F34000313D5000630D6000A168A1189210A1611
:102F44008A11143083120313D1000030D2000A1204
:102F54008A1521200A168A11FC08031DB22FB32FEB
:102F6400FF2F0A168A1135220A168A11BA308312E3
:102F74000313D5000630D6000A168A1189210A16D1
:102F84008A11CB3083120313D5000630D6000A16FB
:102F94008A1189210A168A11143083120313D1006D
:102FA4000030D2000A128A1521200A168A11FC0860
:102FB400031DDD2FDE2FFF2F0A168A1135220A1674
:102FC4008A11423083120313D5000630D6000A1644
:102FD4008A1189210A168A11143083120313D1002D
:102FE4000030D2000A128A1521200A168A11FC0820
:0C2FF400031DFD2FFE2FFF2F5D2F080096
:103F0800831203130712831603138711071208007D
:103F180003108312031300300318013086000800D1
:103F280083120313871505300A168A15E1270A1626
:103F38008A15080083160313071605300A168A1512
:103F4800E1270A168A15080014300A168A119722E2
:103F58000A168A15143083120313880008000A16FB
:103F68008A159E270A168A150A168A15C9270A1657
:103F78008A1508000A168A1143200A168A150A1695
:103F88008A15C9270A168A1508000A168A15942759
:103F98000A168A150A168A15D4270A168A150800D9
:103FA800F73083120313D9005908870505300A161C
:103FB8008A15E1270A168A1508008312DA00E42F09
:103FC80083120130DA025A08FF3A031DEC2FED2F55
:103FD800E42F08000A168A112F230A168A1583125D
:103FE8000313D1000A168A15BE270A168A158312EA
:083FF80003135108FF2F08001C
:02400E00723FFF
:00000001FF
